:100000000C945C000C9479000C9479000C947900A9
:100010000C9479000C9479000C9479000C9479007C
:100020000C9479000C9479000C9479000C9479006C
:100030000C9479000C9479000C9479000C9479005C
:100040000C940B010C9479000C9479000C947900B9
:100050000C9479000C9479000C9479000C9479003C
:100060000C9479000C947900000000080002010053
:100070000003040700000000000000000000000072
:10008000250028002B0000000000240027002A0083
:10009000040404040404040402020202020203032E
:1000A0000303030301020408102040800102040836
:1000B000102001020408102011241FBECFEFD8E049
:1000C000DEBFCDBF11E0A0E0B1E0E2E6F5E002C0A6
:1000D00005900D92A030B107D9F721E0A0E0B1E082
:1000E00001C01D92A930B207E1F70E9455010C949E
:1000F000AF020C94000090E0FC01EC55FF4F2491FE
:1001000080579F4FFC018491882399F090E0880FDD
:10011000991FFC01EA57FF4FA591B491FC01E458E7
:10012000FF4F859194918FB7F894EC91E22BEC936B
:100130008FBF089590E0FC01E859FF4F2491FC0126
:10014000EC55FF4F3491FC01E057FF4FE491EE2353
:10015000C9F0222339F0233001F1A8F4213019F13C
:10016000223029F1F0E0EE0FFF1FE458FF4FA59178
:10017000B4918FB7F894EC91611126C030953E236D
:100180003C938FBF08952730A9F02830C9F0243060
:1001900049F7809180008F7D03C0809180008F7728
:1001A00080938000DFCF84B58F7784BDDBCF84B5AB
:1001B0008F7DFBCF8091B0008F778093B000D2CF3E
:1001C0008091B0008F7DF9CF3E2BDACF3FB7F89406
:1001D0008091050190910601A0910701B09108015D
:1001E00026B5A89B05C02F3F19F00196A11DB11D92
:1001F0003FBFBA2FA92F982F8827BC01CD01620FCE
:10020000711D811D911D42E0660F771F881F991F88
:100210004A95D1F708951F920F920FB60F921124AD
:100220002F933F938F939F93AF93BF93809101013F
:1002300090910201A0910301B0910401309100015D
:1002400023E0230F2D3758F50196A11DB11D2093F2
:1002500000018093010190930201A0930301B093E8
:1002600004018091050190910601A0910701B091D0
:1002700008010196A11DB11D80930501909306010F
:10028000A0930701B0930801BF91AF919F918F9107
:100290003F912F910F900FBE0F901F90189526E859
:1002A000230F0296A11DB11DD2CF789484B5826030
:1002B00084BD84B5816084BD85B5826085BD85B50A
:1002C000816085BD80916E00816080936E00109288
:1002D0008100809181008260809381008091810003
:1002E0008160809381008091800081608093800094
:1002F0008091B10084608093B1008091B0008160F2
:100300008093B00080917A00846080937A0080911D
:100310007A00826080937A0080917A008160809375
:100320007A0080917A00806880937A001092C100F0
:100330008AE00E947B0088E00E947B0089E00E94A6
:100340007B008AE00E947B0060E08AE00E949A00C5
:1003500090E4392E44244A9423E0522E612C712CCF
:1003600002E710E0C0E0D0E030927C0080917A009B
:10037000806480937A0080917A0086FDFCCFA09102
:100380007800B09179002FEF30E00E94A802A3011D
:1003900092010E945802D22EC32EE22EF32E61E06B
:1003A00088E00E949A0060E089E00E949A008AE05A
:1003B0000E947B00E114F10479F560E08AE00E947C
:1003C0009A000E94E6004B015C0188EEC82E83E093
:1003D000D82EE12CF12C0E94E600681979098A09CF
:1003E0009B09683E734081059105A8F321E0C21A7C
:1003F000D108E108F10888EE880E83E0981EA11C60
:10040000B11CC114D104E104F10429F7209709F4C7
:10041000ABCF0E940000A8CF2FEFE216F10411F439
:1004200061E0CCCFF8018491833031F148F4813020
:10043000C9F08230E1F0F0E8EF16F1048CF7BDCF9F
:10044000873031F1883061F18430A9F780918000E4
:100450008062809380008D2D9C2D90938B008093E3
:100460008A00AFCF84B5806884BDD7BCAACF84B5DD
:10047000806284BDD8BCA5CF8091800080688093C5
:1004800080008D2D9C2D909389008093880099CFBA
:100490008091B00080688093B000D092B30091CF7B
:1004A0008091B00080628093B000D092B40089CF78
:1004B000052E97FB1EF400940E946F0257FD07D093
:1004C0000E94770207FC03D04EF40C946F02509503
:1004D0004095309521953F4F4F4F5F4F0895909530
:1004E0008095709561957F4F8F4F9F4F0895A1E242
:1004F0001A2EAA1BBB1BFD010DC0AA1FBB1FEE1F9E
:10050000FF1FA217B307E407F50720F0A21BB30BE8
:10051000E40BF50B661F771F881F991F1A9469F764
:1005200060957095809590959B01AC01BD01CF01C0
:100530000895A29FB001B39FC001A39F700D811DBC
:100540001124911DB29F700D811D1124911D0895DC
:100550000E949902B7FF0895821B930B0895F894A7
:02056000FFCFCB
:00000001FF
