:100000000C945D000C9485000C9485000C94850084
:100010000C9485000C9485000C9485000C9485004C
:100020000C9485000C9485000C9485000C9485003C
:100030000C9485000C9485000C9485000C9485002C
:100040000C94E0010C9485000C9450020C942A024C
:100050000C9485000C9485000C9485000C9485000C
:100060000C9485000C9485000000000024002700FB
:100070002A0000000000250028002B0004040404CE
:100080000404040402020202020203030303030342
:10009000010204081020408001020408102001021F
:1000A00004081020000000080002010000030407FB
:1000B0000000000000000000D10311241FBECFEF9C
:1000C000D8E0DEBFCDBF11E0A0E0B1E0EAEBF8E0A0
:1000D00002C005900D92A632B107D9F721E0A6E241
:1000E000B1E001C01D92AC3CB207E1F710E0CDE5F4
:1000F000D0E004C02197FE010E945504CC35D10701
:10010000C9F70E9482020C945B040C94000090E0FA
:10011000FC01EC55FF4F2491FC01E057FF4F349157
:10012000FC01E458FF4FE491EE23C9F0222339F09B
:10013000233001F1A8F4213019F1223029F1F0E047
:10014000EE0FFF1FEE58FF4FA591B4918FB7F894B3
:10015000EC91611126C030953E233C938FBF0895EA
:100160002730A9F02830C9F0243049F78091800069
:100170008F7D03C0809180008F7780938000DFCFD8
:1001800084B58F7784BDDBCF84B58F7DFBCF809125
:10019000B0008F778093B000D2CF8091B0008F7D78
:1001A000F9CF3E2BDACFAF92BF92CF92DF92EF9290
:1001B000FF920F931F93CF93DF936C017B018B0111
:1001C000040F151FEB015E01AE18BF08C017D10761
:1001D00059F06991D601ED91FC910190F081E02DEB
:1001E000C6010995892B79F7C501DF91CF911F9140
:1001F0000F91FF90EF90DF90CF90BF90AF90089558
:10020000FC01538D448D252F30E0842F90E0821B1C
:10021000930B541710F0CF96089501970895FC01A1
:10022000918D828D981761F0A28DAE0FBF2FB11DF9
:100230005D968C91928D9F5F9F73928F90E0089551
:100240008FEF9FEF0895FC01918D828D981731F00B
:10025000828DE80FF11D858D90E008958FEF9FEF5F
:100260000895FC01918D228D892F90E0805C9F4F35
:10027000821B91098F739927089586E291E00E946D
:10028000310121E0892B09F420E0822F089580E0DC
:1002900090E0892B29F00E943D0181110C9400000F
:1002A0000895FC01A48DA80FB92FB11DA35ABF4F0B
:1002B0002C91848D90E001968F739927848FA68965
:1002C000B7892C93A089B1898C91837080648C93B9
:1002D000938D848D981306C00288F389E02D808168
:1002E0008F7D80830895EF92FF920F931F93CF939A
:1002F000DF93EC0181E0888F9B8D8C8D98131AC061
:10030000E889F989808185FF15C09FB7F894EE8947
:10031000FF896083E889F9898081837080648083A4
:100320009FBF81E090E0DF91CF911F910F91FF90EF
:10033000EF900895F62E0B8D10E00F5F1F4F0F7397
:100340001127E02E8C8D8E110CC00FB607FCFACF52
:10035000E889F989808185FFF5CFCE010E9451019E
:10036000F1CFEB8DEC0FFD2FF11DE35AFF4FF08223
:100370009FB7F8940B8FEA89FB8980818062CFCF89
:10038000CF93DF93EC01888D8823B9F0AA89BB89CC
:10039000E889F9898C9185FD03C0808186FD0DC0B7
:1003A0000FB607FCF7CF8C9185FFF2CF808185FFD8
:1003B000EDCFCE010E945101E9CFDF91CF91089599
:1003C0001F920F920FB60F9211242F933F938F938A
:1003D0009F93AF93BF938091C8019091C901A09161
:1003E000CA01B091CB013091C70123E0230F2D3713
:1003F00058F50196A11DB11D2093C7018093C80136
:100400009093C901A093CA01B093CB018091C3011D
:100410009091C401A091C501B091C6010196A11DA2
:10042000B11D8093C3019093C401A093C501B09303
:10043000C601BF91AF919F918F913F912F910F90E6
:100440000FBE0F901F90189526E8230F0296A11D4E
:10045000B11DD2CF1F920F920FB60F9211242F937E
:100460003F934F935F936F937F938F939F93AF933C
:10047000BF93EF93FF9386E291E00E945101FF91B9
:10048000EF91BF91AF919F918F917F916F915F910C
:100490004F913F912F910F900FBE0F901F90189585
:1004A0001F920F920FB60F9211242F938F939F9349
:1004B000EF93FF93E0913601F09137018081E09155
:1004C0003C01F0913D0182FD1BC0908180913F0174
:1004D0008F5F8F7320914001821741F0E0913F01BF
:1004E000F0E0EA5DFE4F958F80933F01FF91EF9121
:1004F0009F918F912F910F900FBE0F901F90189585
:100500008081F4CFCF93DF93CDB7DEB7A3970FB63B
:10051000F894DEBF0FBECDBF789484B5826084BDF1
:1005200084B5816084BD85B5826085BD85B58160F7
:1005300085BD80916E00816080936E001092810075
:100540008091810082608093810080918100816030
:1005500080938100809180008160809380008091F1
:10056000B10084608093B1008091B000816080937D
:10057000B00080917A00846080937A0080917A0044
:10058000826080937A0080917A00816080937A0003
:1005900080917A00806880937A001092C10022E2F4
:1005A00031E0A2E1B1E08D919D919927FC01E057E6
:1005B000FF4F649184589F4FFC0184918823A1F0E0
:1005C00090E0880F991FFC01E859FF4F4591549125
:1005D000FC01EE58FF4F859194918FB7F894FA0182
:1005E0009081962B90838FBF2A173B07E1F6E0910D
:1005F0003601F091370182E08083E0913201F09181
:1006000033011082E0913401F09135018FEC808349
:1006100010923E01E0913A01F0913B0186E0808327
:10062000E0913801F0913901808180618083E0910F
:100630003801F0913901808188608083E091380130
:10064000F0913901808180688083E0913801F091D8
:10065000390180818F7D808388248A9493E0992E4C
:10066000A12CB12C2AE0C22ED12CE12CF12C30E0AF
:10067000232E30E0332EF0E4F0937C0080917A005A
:10068000806480937A0080917A0086FDFCCFA091EF
:100690007800B09179002D010B2E000C66087708C8
:1006A0002FEF30E00E944E04A50194010E94FE034A
:1006B0003BA32AA377FE5FC06DE286E291E00E9431
:1006C000730122273327A90124193509460957093F
:1006D00019A28E010F5D1F4FCA01B901A701960132
:1006E0000E941D04605DF80162938F0121153105A0
:1006F0004105510589F70115110561F001900020B0
:10070000E9F73197AF01401B510BB80186E291E048
:100710000E94D30042E050E062E271E086E291E0A4
:100720000E94D30082E1682E81E0782E10E000E084
:10073000F3018081F2E06F0E711C2AA13BA1002E13
:1007400002C0359527950A94E2F761E020FF60E04A
:100750000E9487000F5F1F4F0830110549F72114D1
:10076000310409F488CF0E943D01882309F483CF26
:100770000E94000080CFA301920119A28E010F5D9B
:100780001F4FCA01B901A70196010E941D04605DB7
:10079000F80162938F01211531054105510589F753
:1007A000AACFE6E2F1E01382128288EE93E0A0E0A5
:1007B000B0E084839583A683B78384E091E091833E
:1007C000808385EC90E09587848784EC90E0978720
:1007D000868780EC90E0918B808B81EC90E0938B0E
:1007E000828B82EC90E0958B848B86EC90E0978BEB
:1007F000868B118E128E138E148E0895052E97FB04
:100800001EF400940E94150457FD07D00E941D0499
:1008100007FC03D04EF40C94150450954095309588
:1008200021953F4F4F4F5F4F08959095809570955C
:1008300061957F4F8F4F9F4F0895A1E21A2EAA1BFB
:10084000BB1BFD010DC0AA1FBB1FEE1FFF1FA21780
:10085000B307E407F50720F0A21BB30BE40BF50B7D
:10086000661F771F881F991F1A9469F76095709506
:10087000809590959B01AC01BD01CF010895A29F89
:10088000B001B39FC001A39F700D811D1124911D64
:10089000B29F700D811D1124911D08950E943F0487
:1008A000B7FF0895821B930B0895EE0FFF1F05906D
:0A08B000F491E02D0994F894FFCFB5
:1008BA00000000007301D3000001C00131010F01E3
:1008CA00230103000200080009000A000B000C00C3
:0608DA000D000D0A0000F4
:00000001FF
