:100000000C9462000C948A000C948A000C948A0070
:100010000C948A000C948A000C948A000C948A0038
:100020000C948A000C948A000C948A000C948A0028
:100030000C948A000C948A000C948A000C948A0018
:100040000C948D020C948A000C94FD020C94D7023F
:100050000C948A000C948A000C948A000C948A00F8
:100060000C948A000C948A000000000024002700F1
:100070002A000000000023002600290000000000E4
:10008000250028002B0004040404040404040202D4
:100090000202020203030303030301020408102007
:1000A0004080010204081020010204081020000012
:1000B0000008000201000003040700000000000027
:1000C0000000520511241FBECFEFD8E0DEBFCDBF28
:1000D00011E0A0E0B1E0E6EEFEE002C005900D9276
:1000E000A236B107D9F722E0A2E6B1E001C01D9225
:1000F000A830B207E1F710E0C2E6D0E004C02197D3
:10010000FE010E946B07C136D107C9F70E94740334
:100110000C9471070C94000090E0FC01E255FF4F35
:100120002491FC01E656FF4F3491FC01EA57FF4F42
:10013000E491EE23C9F0222339F0233001F1A8F431
:10014000213019F1223029F1F0E0EE0FFF1FE458C1
:10015000FF4FA591B4918FB7F894EC91611126C02F
:1001600030953E233C938FBF08952730A9F0283067
:10017000C9F0243049F7809180008F7D03C08091C1
:1001800080008F7780938000DFCF84B58F7784BD28
:10019000DBCF84B58F7DFBCF8091B0008F778093CC
:1001A000B000D2CF8091B0008F7DF9CF3E2BDACF57
:1001B0003FB7F8948091670190916801A09169011F
:1001C000B0916A0126B5A89B05C02F3F19F0019692
:1001D000A11DB11D3FBFBA2FA92F982F8827BC01A1
:1001E000CD01620F711D811D911D42E0660F771FC9
:1001F000881F991F4A95D1F708958F929F92AF92C9
:10020000BF92CF92DF92EF92FF924B015C010E946E
:10021000D8006B017C010E94D8006C197D098E0901
:100220009F09683E734081059105A8F321E0821A79
:100230009108A108B10888EEC80E83E0D81EE11C21
:10024000F11C81149104A104B10429F7FF90EF90EF
:10025000DF90CF90BF90AF909F908F900895AF9216
:10026000BF92CF92DF92EF92FF920F931F93CF93A3
:10027000DF936C017B018B01040F151FEB015E0105
:10028000AE18BF08C017D10759F06991D601ED919A
:10029000FC910190F081E02DC6010995892B79F739
:1002A000C501DF91CF911F910F91FF90EF90DF90EB
:1002B000CF90BF90AF900895FC01538D448D252FB2
:1002C00030E0842F90E0821B930B541710F0CF96F0
:1002D000089501970895FC01918D828D981761F022
:1002E000A28DAE0FBF2FB11D5D968C91928D9F5F39
:1002F0009F73928F90E008958FEF9FEF0895FC0118
:10030000918D828D981731F0828DE80FF11D858DCA
:1003100090E008958FEF9FEF0895FC01918D228D5D
:10032000892F90E0805C9F4F821B91098F739927E2
:1003300008958BE691E00E948D0121E0892B09F45C
:1003400020E0822F089580E090E0892B29F00E9420
:10035000990181110C9400000895FC01A48DA80F4F
:10036000B92FB11DA35ABF4F2C91848D90E00196F7
:100370008F739927848FA689B7892C93A089B18917
:100380008C91837080648C93938D848D981306C0B8
:100390000288F389E02D80818F7D80830895EF921C
:1003A000FF920F931F93CF93DF93EC0181E0888F2F
:1003B0009B8D8C8D98131AC0E889F989808185FFFF
:1003C00015C09FB7F894EE89FF896083E889F989A1
:1003D00080818370806480839FBF81E090E0DF91A3
:1003E000CF911F910F91FF90EF900895F62E0B8DF6
:1003F00010E00F5F1F4F0F731127E02E8C8D8E11B1
:100400000CC00FB607FCFACFE889F989808185FF17
:10041000F5CFCE010E94AD01F1CFEB8DEC0FFD2F9A
:10042000F11DE35AFF4FF0829FB7F8940B8FEA89D2
:10043000FB8980818062CFCFCF93DF93EC01888DE1
:100440008823B9F0AA89BB89E889F9898C9185FD4F
:1004500003C0808186FD0DC00FB607FCF7CF8C91DD
:1004600085FFF2CF808185FFEDCFCE010E94AD01E7
:10047000E9CFDF91CF910895FC0101900020E9F7C9
:100480003197AF01481B590BBC018BE691E00C94EE
:100490002F018F929F92AF92BF920F931F93CF9392
:1004A000DF93CDB7DEB7A1970FB6F894DEBF0FBECE
:1004B000CDBF19A2423008F44AE08E010F5D1F4FF4
:1004C000842E912CB12CA12CA50194010E944907E6
:1004D000E62FB901CA01EA30F4F4E05DD801EE93E9
:1004E0008D01232B242B252B79F790E080E01097AA
:1004F00019F0CD010E943C02A1960FB6F894DEBF20
:100500000FBECDBFDF91CF911F910F91BF90AF90E4
:100510009F908F900895E95CE1CF1F920F920FB6E4
:100520000F9211242F933F938F939F93AF93BF9379
:100530008091630190916401A0916501B091660181
:100540003091620123E0230F2D3758F50196A11D4C
:10055000B11D209362018093630190936401A09385
:100560006501B09366018091670190916801A09147
:100570006901B0916A010196A11DB11D80936701C7
:1005800090936801A0936901B0936A01BF91AF9104
:100590009F918F913F912F910F900FBE0F901F90C1
:1005A000189526E8230F0296A11DB11DD2CF1F92E8
:1005B0000F920FB60F9211242F933F934F935F9397
:1005C0006F937F938F939F93AF93BF93EF93FF931B
:1005D0008BE691E00E94AD01FF91EF91BF91AF9149
:1005E0009F918F917F916F915F914F913F912F914B
:1005F0000F900FBE0F901F9018951F920F920FB67D
:100600000F9211242F938F939F93EF93FF93E09179
:100610007B01F0917C018081E0918101F091820168
:1006200082FD1BC09081809184018F5F8F73209128
:100630008501821741F0E0918401F0E0E559FE4F19
:10064000958F80938401FF91EF919F918F912F91CE
:100650000F900FBE0F901F9018958081F4CFCF920E
:10066000DF92EF92FF920F931F93E82FF92F05C0AF
:10067000015011092109310961F1908196239417E4
:10068000B9F305C0015011092109310911F1908117
:1006900096239413F7CFC12CD12CE12CF12C0AC056
:1006A0008FEFC81AD80AE80AF80A0C151D052E059E
:1006B0003F0579F080818623841791F36C2D7D2D81
:1006C0008E2D9F2D1F910F91FF90EF90DF90CF9077
:1006D000089560E070E080E090E01F910F91FF903E
:1006E000EF90DF90CF900895789484B5826084BDB8
:1006F00084B5816084BD85B5826085BD85B5816026
:1007000085BD80916E00816080936E0010928100A3
:10071000809181008260809381008091810081605E
:10072000809381008091800081608093800080911F
:10073000B10084608093B1008091B00081608093AB
:10074000B00080917A00846080937A0080917A0072
:10075000826080937A0080917A00816080937A0031
:1007600080917A00806880937A001092C1002AE517
:1007700031E0AAE1B1E02A173B0709F44BC08D91A3
:100780009C9111979927FC01E656FF4F44918A5797
:100790009F4FFC018491882399F090E0880F991F66
:1007A000FC01E859FF4FC591D491FC01E458FF4F7B
:1007B000859194918FB7F894E881E42BE8838FBFFB
:1007C00012968D919C9113979927FC01E656FF4F45
:1007D00044918A579F4FFC0184918823C9F090E08F
:1007E000880F991FFC01E859FF4FC591D491FC0176
:1007F000E458FF4F659174919FB7F8948881E42F76
:10080000E0958E238883EB018881E823E8839FBFEE
:100810001496B1CFE0917B01F0917C0182E080835E
:10082000E0917701F09178011082E0917901F091E7
:100830007A018FEC808310928301E0917F01F09127
:10084000800186E08083E0917D01F0917E018081CE
:1008500080618083E0917D01F0917E0180818860DC
:100860008083E0917D01F0917E01808180688083AA
:10087000E0917D01F0917E0180818F7D808323E274
:10088000222E312C30E0832E30E0932E92E1A92EDF
:1008900091E0B92ECAE1D1E0F88060E08F2D0E948E
:1008A0008C0083E090E00197F1F761E08F2D0E94CA
:1008B0008C00C1010197F1F760E08F2D0E948C0040
:1008C0008A819B819927FC01E656FF4F6491FC01C8
:1008D000EA57FF4FE491F0E0EE0FFF1FEE58FF4F95
:1008E0008591949100E412E42FE030E0462F0E94BD
:1008F0002F03611571058105910529F06F5F7F4F09
:100900008F4F9F4F9F700E94200626E933E44BE0F3
:100910005DE30E94D70620E030E040E05FE30E9404
:10092000D7066B017C01F501819191915F010097E0
:1009300011F00E943C028AE291E00E943C02A70171
:100940009601C701B6010E944407882379F18EE21F
:1009500091E00E943C028AE391E00E943C0264E143
:1009600070E080E090E00E94FD0024968AE291E031
:100970008C179D0709F090CF8DE391E00E943C0217
:100980008AE391E00E943C0268EE73E080E090E030
:100990000E94FD008114910409F478CF0E9499010E
:1009A000882309F473CF0E94000070CF2FEF3FEF30
:1009B0004FE75FE7C701B6010E94440781110DC0F0
:1009C0002FEF3FEF4FE75FE7C701B6010E94EC054D
:1009D00018161CF482E391E0BCCF2FEF3FEF4FE7F6
:1009E0005FE4C701B6010E94D20618161CF486E324
:1009F00091E0AFCF2FEF3FEF4FE75FECC701B601BC
:100A00000E94EC0587FDF3CF2AE037ED43EA5BE374
:100A1000C701B6010E9480052B013C010E94F1052F
:100A20006B017C010E9420069B01AC01C301B20155
:100A30000E947F052B013C014AE0C701B6010E94DC
:100A400049026EE28BE691E00E94CF0120E030E0A7
:100A500040E251E4C301B2010E94D7062B013C01E0
:100A60000E94F1056B01F12CE12C4AE0C701B601AF
:100A70000E944902C701B6010E9420069B01AC01F9
:100A8000C301B2010E947F0520E030E040E251E462
:100A90000E94D7060E94F10590E080E04AE00E94A3
:100AA000490259CFEBE6F1E01382128288EE93E01F
:100AB000A0E0B0E084839583A683B78384E091E0CF
:100AC0009183808385EC90E09587848784EC90E027
:100AD0009787868780EC90E0918B808B81EC90E00B
:100AE000938B828B82EC90E0958B848B86EC90E0EC
:100AF000978B868B118E128E138E148E08955058FC
:100B0000BB27AA270E9497050C9498060E948A0684
:100B100038F00E94910620F039F49F3F19F426F432
:100B20000C9487060EF4E095E7FB0C948106E92F00
:100B30000E94A90658F3BA1762077307840795073E
:100B400020F079F4A6F50C94CB060EF4E0950B2E6C
:100B5000BA2FA02D0B01B90190010C01CA01A0010F
:100B60001124FF27591B99F0593F50F4503E68F16A
:100B70001A16F040A22F232F342F4427585FF3CFAB
:100B8000469537952795A795F0405395C9F77EF47C
:100B90001F16BA0B620B730B840BBAF09150A1F0C5
:100BA000FF0FBB1F661F771F881FC2F70EC0BA0F4B
:100BB000621F731F841F48F4879577956795B795D3
:100BC000F7959E3F08F0B0CF9395880F08F09927CE
:100BD000EE0F9795879508950E945D0608F481E0D1
:100BE00008950E94B10688F09F5798F0B92F992771
:100BF000B751B0F0E1F0660F771F881F991F1AF008
:100C0000BA95C9F714C0B13091F00E94CB06B1E09B
:100C100008950C94CB06672F782F8827B85F39F09A
:100C2000B93FCCF3869577956795B395D9F73EF4A0
:100C300090958095709561957F4F8F4F9F4F089548
:100C4000E89409C097FB3EF4909580957095619566
:100C50007F4F8F4F9F4F9923A9F0F92F96E9BB271C
:100C60009395F695879577956795B795F111F8CF98
:100C7000FAF4BB0F11F460FF1BC06F5F7F4F8F4F03
:100C80009F4F16C0882311F096E911C0772321F0F9
:100C90009EE8872F762F05C0662371F096E8862F91
:100CA00070E060E02AF09A95660F771F881FDAF7E8
:100CB000880F9695879597F90895990F0008550F15
:100CC000AA0BE0E8FEEF16161706E807F907C0F0D2
:100CD00012161306E407F50798F0621B730B840BDA
:100CE000950B39F40A2661F0232B242B252B21F4B4
:100CF00008950A2609F4A140A6958FEF811D811D54
:100D0000089597F99F6780E870E060E008959FEF8D
:100D100080EC089500240A94161617061806090692
:100D2000089500240A941216130614060506089561
:100D3000092E0394000C11F4882352F0BB0F40F4E9
:100D4000BF2B11F460FF04C06F5F7F4F8F4F9F4F29
:100D5000089557FD9058440F551F59F05F3F71F0AB
:100D60004795880F97FB991F61F09F3F79F0879512
:100D70000895121613061406551FF2CF4695F1DF9B
:100D800008C0161617061806991FF1CF869571052B
:100D9000610508940895E894BB2766277727CB015F
:100DA00097F908950E945D0608F48FEF08950E9458
:100DB000EA060C9498060E948A0638F00E94910672
:100DC00020F0952311F00C9481060C9487061124D1
:100DD0000C94CC060E94A90670F3959FC1F3950F61
:100DE00050E0551F629FF001729FBB27F00DB11DAF
:100DF000639FAA27F00DB11DAA1F649F6627B00D3F
:100E0000A11D661F829F2227B00DA11D621F739F27
:100E1000B00DA11D621F839FA00D611D221F749F35
:100E20003327A00D611D231F849F600D211D822F7C
:100E3000762F6A2F11249F5750409AF0F1F08823A3
:100E40004AF0EE0FFF1FBB1F661F771F881F9150D0
:100E50005040A9F79E3F510580F00C9481060C94F8
:100E6000CC065F3FE4F3983ED4F38695779567957B
:100E7000B795F795E7959F5FC1F7FE2B880F911DFA
:100E80009695879597F908950E945D06880B990BB2
:100E90000895A1E21A2EAA1BBB1BFD010DC0AA1FBB
:100EA000BB1FEE1FFF1FA217B307E407F50720F0D3
:100EB000A21BB30BE40BF50B661F771F881F991F4E
:100EC0001A9469F760957095809590959B01AC0197
:100ED000BD01CF010895EE0FFF1F0590F491E02DA5
:060EE0000994F894FFCF15
:100EE60000000000CF012F015C011C028D016B0187
:100EF6007F015101540158015C01080009000A00F4
:100F06000B00030002000C000D00203A20006E6169
:100F16006E00696E66006F7666000D0A003D3D3D07
:100F26003D3D3D3D3D3D3D3D3D3D3D3D3D3D3D3DEB
:100F3600004F4E00534F4C005341470041524B4126
:020F46000000A9
:00000001FF
